{
	"data": {
		"bytecode": {
			"linkReferences": {},
			"object": "6080604052620151806004553480156015575f5ffd5b506111a5806100235f395ff3fe60806040526004361061007a575f3560e01c806380a3301b1161004d57806380a3301b146101765780638da5cb5b146101b257806393dac8ff146101dc578063e2796eb3146102065761007a565b806307ae76461461007e57806310a7fd7b146100ba5780633441efdf146100fc578063693b02891461013a575b5f5ffd5b348015610089575f5ffd5b506100a4600480360381019061009f9190610864565b610222565b6040516100b1919061089e565b60405180910390f35b3480156100c5575f5ffd5b506100e060048036038101906100db9190610864565b6102aa565b6040516100f39796959493929190610a1f565b60405180910390f35b348015610107575f5ffd5b50610122600480360381019061011d9190610864565b6103a5565b60405161013193929190610a93565b60405180910390f35b348015610145575f5ffd5b50610160600480360381019061015b9190610864565b610470565b60405161016d9190610ae2565b60405180910390f35b348015610181575f5ffd5b5061019c60048036038101906101979190610864565b61048d565b6040516101a9919061089e565b60405180910390f35b3480156101bd575f5ffd5b506101c6610529565b6040516101d39190610afb565b60405180910390f35b3480156101e7575f5ffd5b506101f061054e565b6040516101fd919061089e565b60405180910390f35b610220600480360381019061021b9190610c86565b610554565b005b5f60015f8381526020019081526020015f205f9054906101000a900460ff16610277576040517fe6923cc700000000000000000000000000000000000000000000000000000000815260040160405180910390fd5b6004545f5f8481526020019081526020015f2060040154426102999190610d33565b6102a39190610d93565b9050919050565b5f602052805f5260405f205f91509050805f015490806001015f9054906101000a900473ffffffffffffffffffffffffffffffffffffffff16908060020180546102f390610df0565b80601f016020809104026020016040519081016040528092919081815260200182805461031f90610df0565b801561036a5780601f106103415761010080835404028352916020019161036a565b820191905f5260205f20905b81548152906001019060200180831161034d57829003601f168201915b505050505090806003015490806004015490806005015f9054906101000a900460ff16908060050160019054906101000a900460ff16905087565b5f5f5f60015f8581526020019081526020015f205f9054906101000a900460ff166103fc576040517fe6923cc700000000000000000000000000000000000000000000000000000000815260040160405180910390fd5b5f5f8581526020019081526020015f206001015f9054906101000a900473ffffffffffffffffffffffffffffffffffffffff165f5f8681526020019081526020015f20600301545f5f8781526020019081526020015f206005015f9054906101000a900460ff169250925092509193909250565b6001602052805f5260405f205f915054906101000a900460ff1681565b5f60015f8381526020019081526020015f205f9054906101000a900460ff166104e2576040517fe6923cc700000000000000000000000000000000000000000000000000000000815260040160405180910390fd5b610e106104ee83610222565b60055f5f8681526020019081526020015f206003015461050e9190610e20565b6105189190610e20565b6105229190610d93565b9050919050565b60035f9054906101000a900473ffffffffffffffffffffffffffffffffffffffff1681565b60025481565b5f340361058d576040517f733c43bd00000000000000000000000000000000000000000000000000000000815260040160405180910390fd5b5f60068111156105a05761059f610966565b5b8260068111156105b3576105b2610966565b5b036105ea576040517fbdf7a5a000000000000000000000000000000000000000000000000000000000815260040160405180910390fd5b6001151560015f8681526020019081526020015f205f9054906101000a900460ff16151503610645576040517f25d9f33a00000000000000000000000000000000000000000000000000000000815260040160405180910390fd5b6040518060e001604052808581526020013373ffffffffffffffffffffffffffffffffffffffff16815260200184815260200134815260200142815260200183600681111561069757610696610966565b5b81526020018260038111156106af576106ae610966565b5b8152505f5f8681526020019081526020015f205f820151815f01556020820151816001015f6101000a81548173ffffffffffffffffffffffffffffffffffffffff021916908373ffffffffffffffffffffffffffffffffffffffff16021790555060408201518160020190816107259190611001565b50606082015181600301556080820151816004015560a0820151816005015f6101000a81548160ff0219169083600681111561076457610763610966565b5b021790555060c08201518160050160016101000a81548160ff0219169083600381111561079457610793610966565b5b02179055509050506001805f8681526020019081526020015f205f6101000a81548160ff02191690831515021790555060025f8154809291906107d6906110d0565b91905055507ff7088f3f2916ebecb1cbff81fdd53a9f0c14dc2a75c1d9f2ee6b85790b8cc11d8433853486604051610812959493929190611117565b60405180910390a150505050565b5f604051905090565b5f5ffd5b5f5ffd5b5f819050919050565b61084381610831565b811461084d575f5ffd5b50565b5f8135905061085e8161083a565b92915050565b5f6020828403121561087957610878610829565b5b5f61088684828501610850565b91505092915050565b61089881610831565b82525050565b5f6020820190506108b15f83018461088f565b92915050565b5f73ffffffffffffffffffffffffffffffffffffffff82169050919050565b5f6108e0826108b7565b9050919050565b6108f0816108d6565b82525050565b5f81519050919050565b5f82825260208201905092915050565b8281835e5f83830152505050565b5f601f19601f8301169050919050565b5f610938826108f6565b6109428185610900565b9350610952818560208601610910565b61095b8161091e565b840191505092915050565b7f4e487b71000000000000000000000000000000000000000000000000000000005f52602160045260245ffd5b600781106109a4576109a3610966565b5b50565b5f8190506109b482610993565b919050565b5f6109c3826109a7565b9050919050565b6109d3816109b9565b82525050565b600481106109ea576109e9610966565b5b50565b5f8190506109fa826109d9565b919050565b5f610a09826109ed565b9050919050565b610a19816109ff565b82525050565b5f60e082019050610a325f83018a61088f565b610a3f60208301896108e7565b8181036040830152610a51818861092e565b9050610a60606083018761088f565b610a6d608083018661088f565b610a7a60a08301856109ca565b610a8760c0830184610a10565b98975050505050505050565b5f606082019050610aa65f8301866108e7565b610ab3602083018561088f565b610ac060408301846109ca565b949350505050565b5f8115159050919050565b610adc81610ac8565b82525050565b5f602082019050610af55f830184610ad3565b92915050565b5f602082019050610b0e5f8301846108e7565b92915050565b5f5ffd5b5f5ffd5b7f4e487b71000000000000000000000000000000000000000000000000000000005f52604160045260245ffd5b610b528261091e565b810181811067ffffffffffffffff82111715610b7157610b70610b1c565b5b80604052505050565b5f610b83610820565b9050610b8f8282610b49565b919050565b5f67ffffffffffffffff821115610bae57610bad610b1c565b5b610bb78261091e565b9050602081019050919050565b828183375f83830152505050565b5f610be4610bdf84610b94565b610b7a565b905082815260208101848484011115610c0057610bff610b18565b5b610c0b848285610bc4565b509392505050565b5f82601f830112610c2757610c26610b14565b5b8135610c37848260208601610bd2565b91505092915050565b60078110610c4c575f5ffd5b50565b5f81359050610c5d81610c40565b92915050565b60048110610c6f575f5ffd5b50565b5f81359050610c8081610c63565b92915050565b5f5f5f5f60808587031215610c9e57610c9d610829565b5b5f610cab87828801610850565b945050602085013567ffffffffffffffff811115610ccc57610ccb61082d565b5b610cd887828801610c13565b9350506040610ce987828801610c4f565b9250506060610cfa87828801610c72565b91505092959194509250565b7f4e487b71000000000000000000000000000000000000000000000000000000005f52601160045260245ffd5b5f610d3d82610831565b9150610d4883610831565b9250828203905081811115610d6057610d5f610d06565b5b92915050565b7f4e487b71000000000000000000000000000000000000000000000000000000005f52601260045260245ffd5b5f610d9d82610831565b9150610da883610831565b925082610db857610db7610d66565b5b828204905092915050565b7f4e487b71000000000000000000000000000000000000000000000000000000005f52602260045260245ffd5b5f6002820490506001821680610e0757607f821691505b602082108103610e1a57610e19610dc3565b5b50919050565b5f610e2a82610831565b9150610e3583610831565b9250828202610e4381610831565b91508282048414831517610e5a57610e59610d06565b5b5092915050565b5f819050815f5260205f209050919050565b5f6020601f8301049050919050565b5f82821b905092915050565b5f60088302610ebd7fffffffffffffffffffffffffffffffffffffffffffffffffffffffffffffffff82610e82565b610ec78683610e82565b95508019841693508086168417925050509392505050565b5f819050919050565b5f610f02610efd610ef884610831565b610edf565b610831565b9050919050565b5f819050919050565b610f1b83610ee8565b610f2f610f2782610f09565b848454610e8e565b825550505050565b5f5f905090565b610f46610f37565b610f51818484610f12565b505050565b5b81811015610f7457610f695f82610f3e565b600181019050610f57565b5050565b601f821115610fb957610f8a81610e61565b610f9384610e73565b81016020851015610fa2578190505b610fb6610fae85610e73565b830182610f56565b50505b505050565b5f82821c905092915050565b5f610fd95f1984600802610fbe565b1980831691505092915050565b5f610ff18383610fca565b9150826002028217905092915050565b61100a826108f6565b67ffffffffffffffff81111561102357611022610b1c565b5b61102d8254610df0565b611038828285610f78565b5f60209050601f831160018114611069575f8415611057578287015190505b6110618582610fe6565b8655506110c8565b601f19841661107786610e61565b5f5b8281101561109e57848901518255600182019150602085019450602081019050611079565b868310156110bb57848901516110b7601f891682610fca565b8355505b6001600288020188555050505b505050505050565b5f6110da82610831565b91507fffffffffffffffffffffffffffffffffffffffffffffffffffffffffffffffff820361110c5761110b610d06565b5b600182019050919050565b5f60a08201905061112a5f83018861088f565b61113760208301876108e7565b8181036040830152611149818661092e565b9050611158606083018561088f565b61116560808301846109ca565b969550505050505056fea2646970667358221220cd1051dcf26b7f4e36920d7b3f7cd2cea4a38cc07e4b21f01090ad4442c4d8d564736f6c634300081e0033",
			"opcodes": "PUSH1 0x80 PUSH1 0x40 MSTORE PUSH3 0x15180 PUSH1 0x4 SSTORE CALLVALUE DUP1 ISZERO PUSH1 0x15 JUMPI PUSH0 PUSH0 REVERT JUMPDEST POP PUSH2 0x11A5 DUP1 PUSH2 0x23 PUSH0 CODECOPY PUSH0 RETURN INVALID PUSH1 0x80 PUSH1 0x40 MSTORE PUSH1 0x4 CALLDATASIZE LT PUSH2 0x7A JUMPI PUSH0 CALLDATALOAD PUSH1 0xE0 SHR DUP1 PUSH4 0x80A3301B GT PUSH2 0x4D JUMPI DUP1 PUSH4 0x80A3301B EQ PUSH2 0x176 JUMPI DUP1 PUSH4 0x8DA5CB5B EQ PUSH2 0x1B2 JUMPI DUP1 PUSH4 0x93DAC8FF EQ PUSH2 0x1DC JUMPI DUP1 PUSH4 0xE2796EB3 EQ PUSH2 0x206 JUMPI PUSH2 0x7A JUMP JUMPDEST DUP1 PUSH4 0x7AE7646 EQ PUSH2 0x7E JUMPI DUP1 PUSH4 0x10A7FD7B EQ PUSH2 0xBA JUMPI DUP1 PUSH4 0x3441EFDF EQ PUSH2 0xFC JUMPI DUP1 PUSH4 0x693B0289 EQ PUSH2 0x13A JUMPI JUMPDEST PUSH0 PUSH0 REVERT JUMPDEST CALLVALUE DUP1 ISZERO PUSH2 0x89 JUMPI PUSH0 PUSH0 REVERT JUMPDEST POP PUSH2 0xA4 PUSH1 0x4 DUP1 CALLDATASIZE SUB DUP2 ADD SWAP1 PUSH2 0x9F SWAP2 SWAP1 PUSH2 0x864 JUMP JUMPDEST PUSH2 0x222 JUMP JUMPDEST PUSH1 0x40 MLOAD PUSH2 0xB1 SWAP2 SWAP1 PUSH2 0x89E JUMP JUMPDEST PUSH1 0x40 MLOAD DUP1 SWAP2 SUB SWAP1 RETURN JUMPDEST CALLVALUE DUP1 ISZERO PUSH2 0xC5 JUMPI PUSH0 PUSH0 REVERT JUMPDEST POP PUSH2 0xE0 PUSH1 0x4 DUP1 CALLDATASIZE SUB DUP2 ADD SWAP1 PUSH2 0xDB SWAP2 SWAP1 PUSH2 0x864 JUMP JUMPDEST PUSH2 0x2AA JUMP JUMPDEST PUSH1 0x40 MLOAD PUSH2 0xF3 SWAP8 SWAP7 SWAP6 SWAP5 SWAP4 SWAP3 SWAP2 SWAP1 PUSH2 0xA1F JUMP JUMPDEST PUSH1 0x40 MLOAD DUP1 SWAP2 SUB SWAP1 RETURN JUMPDEST CALLVALUE DUP1 ISZERO PUSH2 0x107 JUMPI PUSH0 PUSH0 REVERT JUMPDEST POP PUSH2 0x122 PUSH1 0x4 DUP1 CALLDATASIZE SUB DUP2 ADD SWAP1 PUSH2 0x11D SWAP2 SWAP1 PUSH2 0x864 JUMP JUMPDEST PUSH2 0x3A5 JUMP JUMPDEST PUSH1 0x40 MLOAD PUSH2 0x131 SWAP4 SWAP3 SWAP2 SWAP1 PUSH2 0xA93 JUMP JUMPDEST PUSH1 0x40 MLOAD DUP1 SWAP2 SUB SWAP1 RETURN JUMPDEST CALLVALUE DUP1 ISZERO PUSH2 0x145 JUMPI PUSH0 PUSH0 REVERT JUMPDEST POP PUSH2 0x160 PUSH1 0x4 DUP1 CALLDATASIZE SUB DUP2 ADD SWAP1 PUSH2 0x15B SWAP2 SWAP1 PUSH2 0x864 JUMP JUMPDEST PUSH2 0x470 JUMP JUMPDEST PUSH1 0x40 MLOAD PUSH2 0x16D SWAP2 SWAP1 PUSH2 0xAE2 JUMP JUMPDEST PUSH1 0x40 MLOAD DUP1 SWAP2 SUB SWAP1 RETURN JUMPDEST CALLVALUE DUP1 ISZERO PUSH2 0x181 JUMPI PUSH0 PUSH0 REVERT JUMPDEST POP PUSH2 0x19C PUSH1 0x4 DUP1 CALLDATASIZE SUB DUP2 ADD SWAP1 PUSH2 0x197 SWAP2 SWAP1 PUSH2 0x864 JUMP JUMPDEST PUSH2 0x48D JUMP JUMPDEST PUSH1 0x40 MLOAD PUSH2 0x1A9 SWAP2 SWAP1 PUSH2 0x89E JUMP JUMPDEST PUSH1 0x40 MLOAD DUP1 SWAP2 SUB SWAP1 RETURN JUMPDEST CALLVALUE DUP1 ISZERO PUSH2 0x1BD JUMPI PUSH0 PUSH0 REVERT JUMPDEST POP PUSH2 0x1C6 PUSH2 0x529 JUMP JUMPDEST PUSH1 0x40 MLOAD PUSH2 0x1D3 SWAP2 SWAP1 PUSH2 0xAFB JUMP JUMPDEST PUSH1 0x40 MLOAD DUP1 SWAP2 SUB SWAP1 RETURN JUMPDEST CALLVALUE DUP1 ISZERO PUSH2 0x1E7 JUMPI PUSH0 PUSH0 REVERT JUMPDEST POP PUSH2 0x1F0 PUSH2 0x54E JUMP JUMPDEST PUSH1 0x40 MLOAD PUSH2 0x1FD SWAP2 SWAP1 PUSH2 0x89E JUMP JUMPDEST PUSH1 0x40 MLOAD DUP1 SWAP2 SUB SWAP1 RETURN JUMPDEST PUSH2 0x220 PUSH1 0x4 DUP1 CALLDATASIZE SUB DUP2 ADD SWAP1 PUSH2 0x21B SWAP2 SWAP1 PUSH2 0xC86 JUMP JUMPDEST PUSH2 0x554 JUMP JUMPDEST STOP JUMPDEST PUSH0 PUSH1 0x1 PUSH0 DUP4 DUP2 MSTORE PUSH1 0x20 ADD SWAP1 DUP2 MSTORE PUSH1 0x20 ADD PUSH0 KECCAK256 PUSH0 SWAP1 SLOAD SWAP1 PUSH2 0x100 EXP SWAP1 DIV PUSH1 0xFF AND PUSH2 0x277 JUMPI PUSH1 0x40 MLOAD PUSH32 0xE6923CC700000000000000000000000000000000000000000000000000000000 DUP2 MSTORE PUSH1 0x4 ADD PUSH1 0x40 MLOAD DUP1 SWAP2 SUB SWAP1 REVERT JUMPDEST PUSH1 0x4 SLOAD PUSH0 PUSH0 DUP5 DUP2 MSTORE PUSH1 0x20 ADD SWAP1 DUP2 MSTORE PUSH1 0x20 ADD PUSH0 KECCAK256 PUSH1 0x4 ADD SLOAD TIMESTAMP PUSH2 0x299 SWAP2 SWAP1 PUSH2 0xD33 JUMP JUMPDEST PUSH2 0x2A3 SWAP2 SWAP1 PUSH2 0xD93 JUMP JUMPDEST SWAP1 POP SWAP2 SWAP1 POP JUMP JUMPDEST PUSH0 PUSH1 0x20 MSTORE DUP1 PUSH0 MSTORE PUSH1 0x40 PUSH0 KECCAK256 PUSH0 SWAP2 POP SWAP1 POP DUP1 PUSH0 ADD SLOAD SWAP1 DUP1 PUSH1 0x1 ADD PUSH0 SWAP1 SLOAD SWAP1 PUSH2 0x100 EXP SWAP1 DIV PUSH20 0xFFFFFFFFFFFFFFFFFFFFFFFFFFFFFFFFFFFFFFFF AND SWAP1 DUP1 PUSH1 0x2 ADD DUP1 SLOAD PUSH2 0x2F3 SWAP1 PUSH2 0xDF0 JUMP JUMPDEST DUP1 PUSH1 0x1F ADD PUSH1 0x20 DUP1 SWAP2 DIV MUL PUSH1 0x20 ADD PUSH1 0x40 MLOAD SWAP1 DUP2 ADD PUSH1 0x40 MSTORE DUP1 SWAP3 SWAP2 SWAP1 DUP2 DUP2 MSTORE PUSH1 0x20 ADD DUP3 DUP1 SLOAD PUSH2 0x31F SWAP1 PUSH2 0xDF0 JUMP JUMPDEST DUP1 ISZERO PUSH2 0x36A JUMPI DUP1 PUSH1 0x1F LT PUSH2 0x341 JUMPI PUSH2 0x100 DUP1 DUP4 SLOAD DIV MUL DUP4 MSTORE SWAP2 PUSH1 0x20 ADD SWAP2 PUSH2 0x36A JUMP JUMPDEST DUP3 ADD SWAP2 SWAP1 PUSH0 MSTORE PUSH1 0x20 PUSH0 KECCAK256 SWAP1 JUMPDEST DUP2 SLOAD DUP2 MSTORE SWAP1 PUSH1 0x1 ADD SWAP1 PUSH1 0x20 ADD DUP1 DUP4 GT PUSH2 0x34D JUMPI DUP3 SWAP1 SUB PUSH1 0x1F AND DUP3 ADD SWAP2 JUMPDEST POP POP POP POP POP SWAP1 DUP1 PUSH1 0x3 ADD SLOAD SWAP1 DUP1 PUSH1 0x4 ADD SLOAD SWAP1 DUP1 PUSH1 0x5 ADD PUSH0 SWAP1 SLOAD SWAP1 PUSH2 0x100 EXP SWAP1 DIV PUSH1 0xFF AND SWAP1 DUP1 PUSH1 0x5 ADD PUSH1 0x1 SWAP1 SLOAD SWAP1 PUSH2 0x100 EXP SWAP1 DIV PUSH1 0xFF AND SWAP1 POP DUP8 JUMP JUMPDEST PUSH0 PUSH0 PUSH0 PUSH1 0x1 PUSH0 DUP6 DUP2 MSTORE PUSH1 0x20 ADD SWAP1 DUP2 MSTORE PUSH1 0x20 ADD PUSH0 KECCAK256 PUSH0 SWAP1 SLOAD SWAP1 PUSH2 0x100 EXP SWAP1 DIV PUSH1 0xFF AND PUSH2 0x3FC JUMPI PUSH1 0x40 MLOAD PUSH32 0xE6923CC700000000000000000000000000000000000000000000000000000000 DUP2 MSTORE PUSH1 0x4 ADD PUSH1 0x40 MLOAD DUP1 SWAP2 SUB SWAP1 REVERT JUMPDEST PUSH0 PUSH0 DUP6 DUP2 MSTORE PUSH1 0x20 ADD SWAP1 DUP2 MSTORE PUSH1 0x20 ADD PUSH0 KECCAK256 PUSH1 0x1 ADD PUSH0 SWAP1 SLOAD SWAP1 PUSH2 0x100 EXP SWAP1 DIV PUSH20 0xFFFFFFFFFFFFFFFFFFFFFFFFFFFFFFFFFFFFFFFF AND PUSH0 PUSH0 DUP7 DUP2 MSTORE PUSH1 0x20 ADD SWAP1 DUP2 MSTORE PUSH1 0x20 ADD PUSH0 KECCAK256 PUSH1 0x3 ADD SLOAD PUSH0 PUSH0 DUP8 DUP2 MSTORE PUSH1 0x20 ADD SWAP1 DUP2 MSTORE PUSH1 0x20 ADD PUSH0 KECCAK256 PUSH1 0x5 ADD PUSH0 SWAP1 SLOAD SWAP1 PUSH2 0x100 EXP SWAP1 DIV PUSH1 0xFF AND SWAP3 POP SWAP3 POP SWAP3 POP SWAP2 SWAP4 SWAP1 SWAP3 POP JUMP JUMPDEST PUSH1 0x1 PUSH1 0x20 MSTORE DUP1 PUSH0 MSTORE PUSH1 0x40 PUSH0 KECCAK256 PUSH0 SWAP2 POP SLOAD SWAP1 PUSH2 0x100 EXP SWAP1 DIV PUSH1 0xFF AND DUP2 JUMP JUMPDEST PUSH0 PUSH1 0x1 PUSH0 DUP4 DUP2 MSTORE PUSH1 0x20 ADD SWAP1 DUP2 MSTORE PUSH1 0x20 ADD PUSH0 KECCAK256 PUSH0 SWAP1 SLOAD SWAP1 PUSH2 0x100 EXP SWAP1 DIV PUSH1 0xFF AND PUSH2 0x4E2 JUMPI PUSH1 0x40 MLOAD PUSH32 0xE6923CC700000000000000000000000000000000000000000000000000000000 DUP2 MSTORE PUSH1 0x4 ADD PUSH1 0x40 MLOAD DUP1 SWAP2 SUB SWAP1 REVERT JUMPDEST PUSH2 0xE10 PUSH2 0x4EE DUP4 PUSH2 0x222 JUMP JUMPDEST PUSH1 0x5 PUSH0 PUSH0 DUP7 DUP2 MSTORE PUSH1 0x20 ADD SWAP1 DUP2 MSTORE PUSH1 0x20 ADD PUSH0 KECCAK256 PUSH1 0x3 ADD SLOAD PUSH2 0x50E SWAP2 SWAP1 PUSH2 0xE20 JUMP JUMPDEST PUSH2 0x518 SWAP2 SWAP1 PUSH2 0xE20 JUMP JUMPDEST PUSH2 0x522 SWAP2 SWAP1 PUSH2 0xD93 JUMP JUMPDEST SWAP1 POP SWAP2 SWAP1 POP JUMP JUMPDEST PUSH1 0x3 PUSH0 SWAP1 SLOAD SWAP1 PUSH2 0x100 EXP SWAP1 DIV PUSH20 0xFFFFFFFFFFFFFFFFFFFFFFFFFFFFFFFFFFFFFFFF AND DUP2 JUMP JUMPDEST PUSH1 0x2 SLOAD DUP2 JUMP JUMPDEST PUSH0 CALLVALUE SUB PUSH2 0x58D JUMPI PUSH1 0x40 MLOAD PUSH32 0x733C43BD00000000000000000000000000000000000000000000000000000000 DUP2 MSTORE PUSH1 0x4 ADD PUSH1 0x40 MLOAD DUP1 SWAP2 SUB SWAP1 REVERT JUMPDEST PUSH0 PUSH1 0x6 DUP2 GT ISZERO PUSH2 0x5A0 JUMPI PUSH2 0x59F PUSH2 0x966 JUMP JUMPDEST JUMPDEST DUP3 PUSH1 0x6 DUP2 GT ISZERO PUSH2 0x5B3 JUMPI PUSH2 0x5B2 PUSH2 0x966 JUMP JUMPDEST JUMPDEST SUB PUSH2 0x5EA JUMPI PUSH1 0x40 MLOAD PUSH32 0xBDF7A5A000000000000000000000000000000000000000000000000000000000 DUP2 MSTORE PUSH1 0x4 ADD PUSH1 0x40 MLOAD DUP1 SWAP2 SUB SWAP1 REVERT JUMPDEST PUSH1 0x1 ISZERO ISZERO PUSH1 0x1 PUSH0 DUP7 DUP2 MSTORE PUSH1 0x20 ADD SWAP1 DUP2 MSTORE PUSH1 0x20 ADD PUSH0 KECCAK256 PUSH0 SWAP1 SLOAD SWAP1 PUSH2 0x100 EXP SWAP1 DIV PUSH1 0xFF AND ISZERO ISZERO SUB PUSH2 0x645 JUMPI PUSH1 0x40 MLOAD PUSH32 0x25D9F33A00000000000000000000000000000000000000000000000000000000 DUP2 MSTORE PUSH1 0x4 ADD PUSH1 0x40 MLOAD DUP1 SWAP2 SUB SWAP1 REVERT JUMPDEST PUSH1 0x40 MLOAD DUP1 PUSH1 0xE0 ADD PUSH1 0x40 MSTORE DUP1 DUP6 DUP2 MSTORE PUSH1 0x20 ADD CALLER PUSH20 0xFFFFFFFFFFFFFFFFFFFFFFFFFFFFFFFFFFFFFFFF AND DUP2 MSTORE PUSH1 0x20 ADD DUP5 DUP2 MSTORE PUSH1 0x20 ADD CALLVALUE DUP2 MSTORE PUSH1 0x20 ADD TIMESTAMP DUP2 MSTORE PUSH1 0x20 ADD DUP4 PUSH1 0x6 DUP2 GT ISZERO PUSH2 0x697 JUMPI PUSH2 0x696 PUSH2 0x966 JUMP JUMPDEST JUMPDEST DUP2 MSTORE PUSH1 0x20 ADD DUP3 PUSH1 0x3 DUP2 GT ISZERO PUSH2 0x6AF JUMPI PUSH2 0x6AE PUSH2 0x966 JUMP JUMPDEST JUMPDEST DUP2 MSTORE POP PUSH0 PUSH0 DUP7 DUP2 MSTORE PUSH1 0x20 ADD SWAP1 DUP2 MSTORE PUSH1 0x20 ADD PUSH0 KECCAK256 PUSH0 DUP3 ADD MLOAD DUP2 PUSH0 ADD SSTORE PUSH1 0x20 DUP3 ADD MLOAD DUP2 PUSH1 0x1 ADD PUSH0 PUSH2 0x100 EXP DUP2 SLOAD DUP2 PUSH20 0xFFFFFFFFFFFFFFFFFFFFFFFFFFFFFFFFFFFFFFFF MUL NOT AND SWAP1 DUP4 PUSH20 0xFFFFFFFFFFFFFFFFFFFFFFFFFFFFFFFFFFFFFFFF AND MUL OR SWAP1 SSTORE POP PUSH1 0x40 DUP3 ADD MLOAD DUP2 PUSH1 0x2 ADD SWAP1 DUP2 PUSH2 0x725 SWAP2 SWAP1 PUSH2 0x1001 JUMP JUMPDEST POP PUSH1 0x60 DUP3 ADD MLOAD DUP2 PUSH1 0x3 ADD SSTORE PUSH1 0x80 DUP3 ADD MLOAD DUP2 PUSH1 0x4 ADD SSTORE PUSH1 0xA0 DUP3 ADD MLOAD DUP2 PUSH1 0x5 ADD PUSH0 PUSH2 0x100 EXP DUP2 SLOAD DUP2 PUSH1 0xFF MUL NOT AND SWAP1 DUP4 PUSH1 0x6 DUP2 GT ISZERO PUSH2 0x764 JUMPI PUSH2 0x763 PUSH2 0x966 JUMP JUMPDEST JUMPDEST MUL OR SWAP1 SSTORE POP PUSH1 0xC0 DUP3 ADD MLOAD DUP2 PUSH1 0x5 ADD PUSH1 0x1 PUSH2 0x100 EXP DUP2 SLOAD DUP2 PUSH1 0xFF MUL NOT AND SWAP1 DUP4 PUSH1 0x3 DUP2 GT ISZERO PUSH2 0x794 JUMPI PUSH2 0x793 PUSH2 0x966 JUMP JUMPDEST JUMPDEST MUL OR SWAP1 SSTORE POP SWAP1 POP POP PUSH1 0x1 DUP1 PUSH0 DUP7 DUP2 MSTORE PUSH1 0x20 ADD SWAP1 DUP2 MSTORE PUSH1 0x20 ADD PUSH0 KECCAK256 PUSH0 PUSH2 0x100 EXP DUP2 SLOAD DUP2 PUSH1 0xFF MUL NOT AND SWAP1 DUP4 ISZERO ISZERO MUL OR SWAP1 SSTORE POP PUSH1 0x2 PUSH0 DUP2 SLOAD DUP1 SWAP3 SWAP2 SWAP1 PUSH2 0x7D6 SWAP1 PUSH2 0x10D0 JUMP JUMPDEST SWAP2 SWAP1 POP SSTORE POP PUSH32 0xF7088F3F2916EBECB1CBFF81FDD53A9F0C14DC2A75C1D9F2EE6B85790B8CC11D DUP5 CALLER DUP6 CALLVALUE DUP7 PUSH1 0x40 MLOAD PUSH2 0x812 SWAP6 SWAP5 SWAP4 SWAP3 SWAP2 SWAP1 PUSH2 0x1117 JUMP JUMPDEST PUSH1 0x40 MLOAD DUP1 SWAP2 SUB SWAP1 LOG1 POP POP POP POP JUMP JUMPDEST PUSH0 PUSH1 0x40 MLOAD SWAP1 POP SWAP1 JUMP JUMPDEST PUSH0 PUSH0 REVERT JUMPDEST PUSH0 PUSH0 REVERT JUMPDEST PUSH0 DUP2 SWAP1 POP SWAP2 SWAP1 POP JUMP JUMPDEST PUSH2 0x843 DUP2 PUSH2 0x831 JUMP JUMPDEST DUP2 EQ PUSH2 0x84D JUMPI PUSH0 PUSH0 REVERT JUMPDEST POP JUMP JUMPDEST PUSH0 DUP2 CALLDATALOAD SWAP1 POP PUSH2 0x85E DUP2 PUSH2 0x83A JUMP JUMPDEST SWAP3 SWAP2 POP POP JUMP JUMPDEST PUSH0 PUSH1 0x20 DUP3 DUP5 SUB SLT ISZERO PUSH2 0x879 JUMPI PUSH2 0x878 PUSH2 0x829 JUMP JUMPDEST JUMPDEST PUSH0 PUSH2 0x886 DUP5 DUP3 DUP6 ADD PUSH2 0x850 JUMP JUMPDEST SWAP2 POP POP SWAP3 SWAP2 POP POP JUMP JUMPDEST PUSH2 0x898 DUP2 PUSH2 0x831 JUMP JUMPDEST DUP3 MSTORE POP POP JUMP JUMPDEST PUSH0 PUSH1 0x20 DUP3 ADD SWAP1 POP PUSH2 0x8B1 PUSH0 DUP4 ADD DUP5 PUSH2 0x88F JUMP JUMPDEST SWAP3 SWAP2 POP POP JUMP JUMPDEST PUSH0 PUSH20 0xFFFFFFFFFFFFFFFFFFFFFFFFFFFFFFFFFFFFFFFF DUP3 AND SWAP1 POP SWAP2 SWAP1 POP JUMP JUMPDEST PUSH0 PUSH2 0x8E0 DUP3 PUSH2 0x8B7 JUMP JUMPDEST SWAP1 POP SWAP2 SWAP1 POP JUMP JUMPDEST PUSH2 0x8F0 DUP2 PUSH2 0x8D6 JUMP JUMPDEST DUP3 MSTORE POP POP JUMP JUMPDEST PUSH0 DUP2 MLOAD SWAP1 POP SWAP2 SWAP1 POP JUMP JUMPDEST PUSH0 DUP3 DUP3 MSTORE PUSH1 0x20 DUP3 ADD SWAP1 POP SWAP3 SWAP2 POP POP JUMP JUMPDEST DUP3 DUP2 DUP4 MCOPY PUSH0 DUP4 DUP4 ADD MSTORE POP POP POP JUMP JUMPDEST PUSH0 PUSH1 0x1F NOT PUSH1 0x1F DUP4 ADD AND SWAP1 POP SWAP2 SWAP1 POP JUMP JUMPDEST PUSH0 PUSH2 0x938 DUP3 PUSH2 0x8F6 JUMP JUMPDEST PUSH2 0x942 DUP2 DUP6 PUSH2 0x900 JUMP JUMPDEST SWAP4 POP PUSH2 0x952 DUP2 DUP6 PUSH1 0x20 DUP7 ADD PUSH2 0x910 JUMP JUMPDEST PUSH2 0x95B DUP2 PUSH2 0x91E JUMP JUMPDEST DUP5 ADD SWAP2 POP POP SWAP3 SWAP2 POP POP JUMP JUMPDEST PUSH32 0x4E487B7100000000000000000000000000000000000000000000000000000000 PUSH0 MSTORE PUSH1 0x21 PUSH1 0x4 MSTORE PUSH1 0x24 PUSH0 REVERT JUMPDEST PUSH1 0x7 DUP2 LT PUSH2 0x9A4 JUMPI PUSH2 0x9A3 PUSH2 0x966 JUMP JUMPDEST JUMPDEST POP JUMP JUMPDEST PUSH0 DUP2 SWAP1 POP PUSH2 0x9B4 DUP3 PUSH2 0x993 JUMP JUMPDEST SWAP2 SWAP1 POP JUMP JUMPDEST PUSH0 PUSH2 0x9C3 DUP3 PUSH2 0x9A7 JUMP JUMPDEST SWAP1 POP SWAP2 SWAP1 POP JUMP JUMPDEST PUSH2 0x9D3 DUP2 PUSH2 0x9B9 JUMP JUMPDEST DUP3 MSTORE POP POP JUMP JUMPDEST PUSH1 0x4 DUP2 LT PUSH2 0x9EA JUMPI PUSH2 0x9E9 PUSH2 0x966 JUMP JUMPDEST JUMPDEST POP JUMP JUMPDEST PUSH0 DUP2 SWAP1 POP PUSH2 0x9FA DUP3 PUSH2 0x9D9 JUMP JUMPDEST SWAP2 SWAP1 POP JUMP JUMPDEST PUSH0 PUSH2 0xA09 DUP3 PUSH2 0x9ED JUMP JUMPDEST SWAP1 POP SWAP2 SWAP1 POP JUMP JUMPDEST PUSH2 0xA19 DUP2 PUSH2 0x9FF JUMP JUMPDEST DUP3 MSTORE POP POP JUMP JUMPDEST PUSH0 PUSH1 0xE0 DUP3 ADD SWAP1 POP PUSH2 0xA32 PUSH0 DUP4 ADD DUP11 PUSH2 0x88F JUMP JUMPDEST PUSH2 0xA3F PUSH1 0x20 DUP4 ADD DUP10 PUSH2 0x8E7 JUMP JUMPDEST DUP2 DUP2 SUB PUSH1 0x40 DUP4 ADD MSTORE PUSH2 0xA51 DUP2 DUP9 PUSH2 0x92E JUMP JUMPDEST SWAP1 POP PUSH2 0xA60 PUSH1 0x60 DUP4 ADD DUP8 PUSH2 0x88F JUMP JUMPDEST PUSH2 0xA6D PUSH1 0x80 DUP4 ADD DUP7 PUSH2 0x88F JUMP JUMPDEST PUSH2 0xA7A PUSH1 0xA0 DUP4 ADD DUP6 PUSH2 0x9CA JUMP JUMPDEST PUSH2 0xA87 PUSH1 0xC0 DUP4 ADD DUP5 PUSH2 0xA10 JUMP JUMPDEST SWAP9 SWAP8 POP POP POP POP POP POP POP POP JUMP JUMPDEST PUSH0 PUSH1 0x60 DUP3 ADD SWAP1 POP PUSH2 0xAA6 PUSH0 DUP4 ADD DUP7 PUSH2 0x8E7 JUMP JUMPDEST PUSH2 0xAB3 PUSH1 0x20 DUP4 ADD DUP6 PUSH2 0x88F JUMP JUMPDEST PUSH2 0xAC0 PUSH1 0x40 DUP4 ADD DUP5 PUSH2 0x9CA JUMP JUMPDEST SWAP5 SWAP4 POP POP POP POP JUMP JUMPDEST PUSH0 DUP2 ISZERO ISZERO SWAP1 POP SWAP2 SWAP1 POP JUMP JUMPDEST PUSH2 0xADC DUP2 PUSH2 0xAC8 JUMP JUMPDEST DUP3 MSTORE POP POP JUMP JUMPDEST PUSH0 PUSH1 0x20 DUP3 ADD SWAP1 POP PUSH2 0xAF5 PUSH0 DUP4 ADD DUP5 PUSH2 0xAD3 JUMP JUMPDEST SWAP3 SWAP2 POP POP JUMP JUMPDEST PUSH0 PUSH1 0x20 DUP3 ADD SWAP1 POP PUSH2 0xB0E PUSH0 DUP4 ADD DUP5 PUSH2 0x8E7 JUMP JUMPDEST SWAP3 SWAP2 POP POP JUMP JUMPDEST PUSH0 PUSH0 REVERT JUMPDEST PUSH0 PUSH0 REVERT JUMPDEST PUSH32 0x4E487B7100000000000000000000000000000000000000000000000000000000 PUSH0 MSTORE PUSH1 0x41 PUSH1 0x4 MSTORE PUSH1 0x24 PUSH0 REVERT JUMPDEST PUSH2 0xB52 DUP3 PUSH2 0x91E JUMP JUMPDEST DUP2 ADD DUP2 DUP2 LT PUSH8 0xFFFFFFFFFFFFFFFF DUP3 GT OR ISZERO PUSH2 0xB71 JUMPI PUSH2 0xB70 PUSH2 0xB1C JUMP JUMPDEST JUMPDEST DUP1 PUSH1 0x40 MSTORE POP POP POP JUMP JUMPDEST PUSH0 PUSH2 0xB83 PUSH2 0x820 JUMP JUMPDEST SWAP1 POP PUSH2 0xB8F DUP3 DUP3 PUSH2 0xB49 JUMP JUMPDEST SWAP2 SWAP1 POP JUMP JUMPDEST PUSH0 PUSH8 0xFFFFFFFFFFFFFFFF DUP3 GT ISZERO PUSH2 0xBAE JUMPI PUSH2 0xBAD PUSH2 0xB1C JUMP JUMPDEST JUMPDEST PUSH2 0xBB7 DUP3 PUSH2 0x91E JUMP JUMPDEST SWAP1 POP PUSH1 0x20 DUP2 ADD SWAP1 POP SWAP2 SWAP1 POP JUMP JUMPDEST DUP3 DUP2 DUP4 CALLDATACOPY PUSH0 DUP4 DUP4 ADD MSTORE POP POP POP JUMP JUMPDEST PUSH0 PUSH2 0xBE4 PUSH2 0xBDF DUP5 PUSH2 0xB94 JUMP JUMPDEST PUSH2 0xB7A JUMP JUMPDEST SWAP1 POP DUP3 DUP2 MSTORE PUSH1 0x20 DUP2 ADD DUP5 DUP5 DUP5 ADD GT ISZERO PUSH2 0xC00 JUMPI PUSH2 0xBFF PUSH2 0xB18 JUMP JUMPDEST JUMPDEST PUSH2 0xC0B DUP5 DUP3 DUP6 PUSH2 0xBC4 JUMP JUMPDEST POP SWAP4 SWAP3 POP POP POP JUMP JUMPDEST PUSH0 DUP3 PUSH1 0x1F DUP4 ADD SLT PUSH2 0xC27 JUMPI PUSH2 0xC26 PUSH2 0xB14 JUMP JUMPDEST JUMPDEST DUP2 CALLDATALOAD PUSH2 0xC37 DUP5 DUP3 PUSH1 0x20 DUP7 ADD PUSH2 0xBD2 JUMP JUMPDEST SWAP2 POP POP SWAP3 SWAP2 POP POP JUMP JUMPDEST PUSH1 0x7 DUP2 LT PUSH2 0xC4C JUMPI PUSH0 PUSH0 REVERT JUMPDEST POP JUMP JUMPDEST PUSH0 DUP2 CALLDATALOAD SWAP1 POP PUSH2 0xC5D DUP2 PUSH2 0xC40 JUMP JUMPDEST SWAP3 SWAP2 POP POP JUMP JUMPDEST PUSH1 0x4 DUP2 LT PUSH2 0xC6F JUMPI PUSH0 PUSH0 REVERT JUMPDEST POP JUMP JUMPDEST PUSH0 DUP2 CALLDATALOAD SWAP1 POP PUSH2 0xC80 DUP2 PUSH2 0xC63 JUMP JUMPDEST SWAP3 SWAP2 POP POP JUMP JUMPDEST PUSH0 PUSH0 PUSH0 PUSH0 PUSH1 0x80 DUP6 DUP8 SUB SLT ISZERO PUSH2 0xC9E JUMPI PUSH2 0xC9D PUSH2 0x829 JUMP JUMPDEST JUMPDEST PUSH0 PUSH2 0xCAB DUP8 DUP3 DUP9 ADD PUSH2 0x850 JUMP JUMPDEST SWAP5 POP POP PUSH1 0x20 DUP6 ADD CALLDATALOAD PUSH8 0xFFFFFFFFFFFFFFFF DUP2 GT ISZERO PUSH2 0xCCC JUMPI PUSH2 0xCCB PUSH2 0x82D JUMP JUMPDEST JUMPDEST PUSH2 0xCD8 DUP8 DUP3 DUP9 ADD PUSH2 0xC13 JUMP JUMPDEST SWAP4 POP POP PUSH1 0x40 PUSH2 0xCE9 DUP8 DUP3 DUP9 ADD PUSH2 0xC4F JUMP JUMPDEST SWAP3 POP POP PUSH1 0x60 PUSH2 0xCFA DUP8 DUP3 DUP9 ADD PUSH2 0xC72 JUMP JUMPDEST SWAP2 POP POP SWAP3 SWAP6 SWAP2 SWAP5 POP SWAP3 POP JUMP JUMPDEST PUSH32 0x4E487B7100000000000000000000000000000000000000000000000000000000 PUSH0 MSTORE PUSH1 0x11 PUSH1 0x4 MSTORE PUSH1 0x24 PUSH0 REVERT JUMPDEST PUSH0 PUSH2 0xD3D DUP3 PUSH2 0x831 JUMP JUMPDEST SWAP2 POP PUSH2 0xD48 DUP4 PUSH2 0x831 JUMP JUMPDEST SWAP3 POP DUP3 DUP3 SUB SWAP1 POP DUP2 DUP2 GT ISZERO PUSH2 0xD60 JUMPI PUSH2 0xD5F PUSH2 0xD06 JUMP JUMPDEST JUMPDEST SWAP3 SWAP2 POP POP JUMP JUMPDEST PUSH32 0x4E487B7100000000000000000000000000000000000000000000000000000000 PUSH0 MSTORE PUSH1 0x12 PUSH1 0x4 MSTORE PUSH1 0x24 PUSH0 REVERT JUMPDEST PUSH0 PUSH2 0xD9D DUP3 PUSH2 0x831 JUMP JUMPDEST SWAP2 POP PUSH2 0xDA8 DUP4 PUSH2 0x831 JUMP JUMPDEST SWAP3 POP DUP3 PUSH2 0xDB8 JUMPI PUSH2 0xDB7 PUSH2 0xD66 JUMP JUMPDEST JUMPDEST DUP3 DUP3 DIV SWAP1 POP SWAP3 SWAP2 POP POP JUMP JUMPDEST PUSH32 0x4E487B7100000000000000000000000000000000000000000000000000000000 PUSH0 MSTORE PUSH1 0x22 PUSH1 0x4 MSTORE PUSH1 0x24 PUSH0 REVERT JUMPDEST PUSH0 PUSH1 0x2 DUP3 DIV SWAP1 POP PUSH1 0x1 DUP3 AND DUP1 PUSH2 0xE07 JUMPI PUSH1 0x7F DUP3 AND SWAP2 POP JUMPDEST PUSH1 0x20 DUP3 LT DUP2 SUB PUSH2 0xE1A JUMPI PUSH2 0xE19 PUSH2 0xDC3 JUMP JUMPDEST JUMPDEST POP SWAP2 SWAP1 POP JUMP JUMPDEST PUSH0 PUSH2 0xE2A DUP3 PUSH2 0x831 JUMP JUMPDEST SWAP2 POP PUSH2 0xE35 DUP4 PUSH2 0x831 JUMP JUMPDEST SWAP3 POP DUP3 DUP3 MUL PUSH2 0xE43 DUP2 PUSH2 0x831 JUMP JUMPDEST SWAP2 POP DUP3 DUP3 DIV DUP5 EQ DUP4 ISZERO OR PUSH2 0xE5A JUMPI PUSH2 0xE59 PUSH2 0xD06 JUMP JUMPDEST JUMPDEST POP SWAP3 SWAP2 POP POP JUMP JUMPDEST PUSH0 DUP2 SWAP1 POP DUP2 PUSH0 MSTORE PUSH1 0x20 PUSH0 KECCAK256 SWAP1 POP SWAP2 SWAP1 POP JUMP JUMPDEST PUSH0 PUSH1 0x20 PUSH1 0x1F DUP4 ADD DIV SWAP1 POP SWAP2 SWAP1 POP JUMP JUMPDEST PUSH0 DUP3 DUP3 SHL SWAP1 POP SWAP3 SWAP2 POP POP JUMP JUMPDEST PUSH0 PUSH1 0x8 DUP4 MUL PUSH2 0xEBD PUSH32 0xFFFFFFFFFFFFFFFFFFFFFFFFFFFFFFFFFFFFFFFFFFFFFFFFFFFFFFFFFFFFFFFF DUP3 PUSH2 0xE82 JUMP JUMPDEST PUSH2 0xEC7 DUP7 DUP4 PUSH2 0xE82 JUMP JUMPDEST SWAP6 POP DUP1 NOT DUP5 AND SWAP4 POP DUP1 DUP7 AND DUP5 OR SWAP3 POP POP POP SWAP4 SWAP3 POP POP POP JUMP JUMPDEST PUSH0 DUP2 SWAP1 POP SWAP2 SWAP1 POP JUMP JUMPDEST PUSH0 PUSH2 0xF02 PUSH2 0xEFD PUSH2 0xEF8 DUP5 PUSH2 0x831 JUMP JUMPDEST PUSH2 0xEDF JUMP JUMPDEST PUSH2 0x831 JUMP JUMPDEST SWAP1 POP SWAP2 SWAP1 POP JUMP JUMPDEST PUSH0 DUP2 SWAP1 POP SWAP2 SWAP1 POP JUMP JUMPDEST PUSH2 0xF1B DUP4 PUSH2 0xEE8 JUMP JUMPDEST PUSH2 0xF2F PUSH2 0xF27 DUP3 PUSH2 0xF09 JUMP JUMPDEST DUP5 DUP5 SLOAD PUSH2 0xE8E JUMP JUMPDEST DUP3 SSTORE POP POP POP POP JUMP JUMPDEST PUSH0 PUSH0 SWAP1 POP SWAP1 JUMP JUMPDEST PUSH2 0xF46 PUSH2 0xF37 JUMP JUMPDEST PUSH2 0xF51 DUP2 DUP5 DUP5 PUSH2 0xF12 JUMP JUMPDEST POP POP POP JUMP JUMPDEST JUMPDEST DUP2 DUP2 LT ISZERO PUSH2 0xF74 JUMPI PUSH2 0xF69 PUSH0 DUP3 PUSH2 0xF3E JUMP JUMPDEST PUSH1 0x1 DUP2 ADD SWAP1 POP PUSH2 0xF57 JUMP JUMPDEST POP POP JUMP JUMPDEST PUSH1 0x1F DUP3 GT ISZERO PUSH2 0xFB9 JUMPI PUSH2 0xF8A DUP2 PUSH2 0xE61 JUMP JUMPDEST PUSH2 0xF93 DUP5 PUSH2 0xE73 JUMP JUMPDEST DUP2 ADD PUSH1 0x20 DUP6 LT ISZERO PUSH2 0xFA2 JUMPI DUP2 SWAP1 POP JUMPDEST PUSH2 0xFB6 PUSH2 0xFAE DUP6 PUSH2 0xE73 JUMP JUMPDEST DUP4 ADD DUP3 PUSH2 0xF56 JUMP JUMPDEST POP POP JUMPDEST POP POP POP JUMP JUMPDEST PUSH0 DUP3 DUP3 SHR SWAP1 POP SWAP3 SWAP2 POP POP JUMP JUMPDEST PUSH0 PUSH2 0xFD9 PUSH0 NOT DUP5 PUSH1 0x8 MUL PUSH2 0xFBE JUMP JUMPDEST NOT DUP1 DUP4 AND SWAP2 POP POP SWAP3 SWAP2 POP POP JUMP JUMPDEST PUSH0 PUSH2 0xFF1 DUP4 DUP4 PUSH2 0xFCA JUMP JUMPDEST SWAP2 POP DUP3 PUSH1 0x2 MUL DUP3 OR SWAP1 POP SWAP3 SWAP2 POP POP JUMP JUMPDEST PUSH2 0x100A DUP3 PUSH2 0x8F6 JUMP JUMPDEST PUSH8 0xFFFFFFFFFFFFFFFF DUP2 GT ISZERO PUSH2 0x1023 JUMPI PUSH2 0x1022 PUSH2 0xB1C JUMP JUMPDEST JUMPDEST PUSH2 0x102D DUP3 SLOAD PUSH2 0xDF0 JUMP JUMPDEST PUSH2 0x1038 DUP3 DUP3 DUP6 PUSH2 0xF78 JUMP JUMPDEST PUSH0 PUSH1 0x20 SWAP1 POP PUSH1 0x1F DUP4 GT PUSH1 0x1 DUP2 EQ PUSH2 0x1069 JUMPI PUSH0 DUP5 ISZERO PUSH2 0x1057 JUMPI DUP3 DUP8 ADD MLOAD SWAP1 POP JUMPDEST PUSH2 0x1061 DUP6 DUP3 PUSH2 0xFE6 JUMP JUMPDEST DUP7 SSTORE POP PUSH2 0x10C8 JUMP JUMPDEST PUSH1 0x1F NOT DUP5 AND PUSH2 0x1077 DUP7 PUSH2 0xE61 JUMP JUMPDEST PUSH0 JUMPDEST DUP3 DUP2 LT ISZERO PUSH2 0x109E JUMPI DUP5 DUP10 ADD MLOAD DUP3 SSTORE PUSH1 0x1 DUP3 ADD SWAP2 POP PUSH1 0x20 DUP6 ADD SWAP5 POP PUSH1 0x20 DUP2 ADD SWAP1 POP PUSH2 0x1079 JUMP JUMPDEST DUP7 DUP4 LT ISZERO PUSH2 0x10BB JUMPI DUP5 DUP10 ADD MLOAD PUSH2 0x10B7 PUSH1 0x1F DUP10 AND DUP3 PUSH2 0xFCA JUMP JUMPDEST DUP4 SSTORE POP JUMPDEST PUSH1 0x1 PUSH1 0x2 DUP9 MUL ADD DUP9 SSTORE POP POP POP JUMPDEST POP POP POP POP POP POP JUMP JUMPDEST PUSH0 PUSH2 0x10DA DUP3 PUSH2 0x831 JUMP JUMPDEST SWAP2 POP PUSH32 0xFFFFFFFFFFFFFFFFFFFFFFFFFFFFFFFFFFFFFFFFFFFFFFFFFFFFFFFFFFFFFFFF DUP3 SUB PUSH2 0x110C JUMPI PUSH2 0x110B PUSH2 0xD06 JUMP JUMPDEST JUMPDEST PUSH1 0x1 DUP3 ADD SWAP1 POP SWAP2 SWAP1 POP JUMP JUMPDEST PUSH0 PUSH1 0xA0 DUP3 ADD SWAP1 POP PUSH2 0x112A PUSH0 DUP4 ADD DUP9 PUSH2 0x88F JUMP JUMPDEST PUSH2 0x1137 PUSH1 0x20 DUP4 ADD DUP8 PUSH2 0x8E7 JUMP JUMPDEST DUP2 DUP2 SUB PUSH1 0x40 DUP4 ADD MSTORE PUSH2 0x1149 DUP2 DUP7 PUSH2 0x92E JUMP JUMPDEST SWAP1 POP PUSH2 0x1158 PUSH1 0x60 DUP4 ADD DUP6 PUSH2 0x88F JUMP JUMPDEST PUSH2 0x1165 PUSH1 0x80 DUP4 ADD DUP5 PUSH2 0x9CA JUMP JUMPDEST SWAP7 SWAP6 POP POP POP POP POP POP JUMP INVALID LOG2 PUSH5 0x6970667358 0x22 SLT KECCAK256 0xCD LT MLOAD 0xDC CALLCODE PUSH12 0x7F4E36920D7B3F7CD2CEA4A3 DUP13 0xC0 PUSH31 0x4B21F01090AD4442C4D8D564736F6C634300081E0033000000000000000000 "
		},
		"gasEstimates": {
			"creation": {
				"codeDepositCost": "903400",
				"executionCost": "23046",
				"totalCost": "926446"
			},
			"external": {
				"addInvestment(uint256,string,uint8,uint8)": "infinite",
				"calculateYield(uint256)": "infinite",
				"getDaysUnderManagement(uint256)": "infinite",
				"getInvestmentSummary(uint256)": "infinite",
				"idUsed(uint256)": "2852",
				"ledger(uint256)": "infinite",
				"owner()": "2530",
				"totalInvestmentsCount()": "2469"
			}
		},
		"methodIdentifiers": {
			"addInvestment(uint256,string,uint8,uint8)": "e2796eb3",
			"calculateYield(uint256)": "80a3301b",
			"getDaysUnderManagement(uint256)": "07ae7646",
			"getInvestmentSummary(uint256)": "3441efdf",
			"idUsed(uint256)": "693b0289",
			"ledger(uint256)": "10a7fd7b",
			"owner()": "8da5cb5b",
			"totalInvestmentsCount()": "93dac8ff"
		}
	},
	"abi": [
		{
			"inputs": [],
			"name": "CorporateTreasury_IDExist",
			"type": "error"
		},
		{
			"inputs": [],
			"name": "CorporateTreasury_InvalidAmount",
			"type": "error"
		},
		{
			"inputs": [],
			"name": "CorporateTreasury_InvstNotExist",
			"type": "error"
		},
		{
			"inputs": [],
			"name": "CorporateTreasury_NotAutorized",
			"type": "error"
		},
		{
			"inputs": [],
			"name": "CorporateTreasury_SelectContinent",
			"type": "error"
		},
		{
			"anonymous": false,
			"inputs": [
				{
					"indexed": false,
					"internalType": "uint256",
					"name": "id",
					"type": "uint256"
				},
				{
					"indexed": false,
					"internalType": "address",
					"name": "investor",
					"type": "address"
				},
				{
					"indexed": false,
					"internalType": "string",
					"name": "assetName",
					"type": "string"
				},
				{
					"indexed": false,
					"internalType": "uint256",
					"name": "principal",
					"type": "uint256"
				},
				{
					"indexed": false,
					"internalType": "enum corporateTreasury.Continent",
					"name": "continent",
					"type": "uint8"
				}
			],
			"name": "InvestmentRecorded",
			"type": "event"
		},
		{
			"inputs": [
				{
					"internalType": "uint256",
					"name": "_id",
					"type": "uint256"
				},
				{
					"internalType": "string",
					"name": "_assetName",
					"type": "string"
				},
				{
					"internalType": "enum corporateTreasury.Continent",
					"name": "_continent",
					"type": "uint8"
				},
				{
					"internalType": "enum corporateTreasury.AssetClass",
					"name": "_assetClass",
					"type": "uint8"
				}
			],
			"name": "addInvestment",
			"outputs": [],
			"stateMutability": "payable",
			"type": "function"
		},
		{
			"inputs": [
				{
					"internalType": "uint256",
					"name": "_id",
					"type": "uint256"
				}
			],
			"name": "calculateYield",
			"outputs": [
				{
					"internalType": "uint256",
					"name": "accruedYield",
					"type": "uint256"
				}
			],
			"stateMutability": "view",
			"type": "function"
		},
		{
			"inputs": [
				{
					"internalType": "uint256",
					"name": "_id",
					"type": "uint256"
				}
			],
			"name": "getDaysUnderManagement",
			"outputs": [
				{
					"internalType": "uint256",
					"name": "daysUnderMgmt",
					"type": "uint256"
				}
			],
			"stateMutability": "view",
			"type": "function"
		},
		{
			"inputs": [
				{
					"internalType": "uint256",
					"name": "_id",
					"type": "uint256"
				}
			],
			"name": "getInvestmentSummary",
			"outputs": [
				{
					"internalType": "address",
					"name": "investor",
					"type": "address"
				},
				{
					"internalType": "uint256",
					"name": "principal",
					"type": "uint256"
				},
				{
					"internalType": "enum corporateTreasury.Continent",
					"name": "continent",
					"type": "uint8"
				}
			],
			"stateMutability": "view",
			"type": "function"
		},
		{
			"inputs": [
				{
					"internalType": "uint256",
					"name": "",
					"type": "uint256"
				}
			],
			"name": "idUsed",
			"outputs": [
				{
					"internalType": "bool",
					"name": "",
					"type": "bool"
				}
			],
			"stateMutability": "view",
			"type": "function"
		},
		{
			"inputs": [
				{
					"internalType": "uint256",
					"name": "",
					"type": "uint256"
				}
			],
			"name": "ledger",
			"outputs": [
				{
					"internalType": "uint256",
					"name": "id",
					"type": "uint256"
				},
				{
					"internalType": "address",
					"name": "investor",
					"type": "address"
				},
				{
					"internalType": "string",
					"name": "assetName",
					"type": "string"
				},
				{
					"internalType": "uint256",
					"name": "principal",
					"type": "uint256"
				},
				{
					"internalType": "uint256",
					"name": "timestamp",
					"type": "uint256"
				},
				{
					"internalType": "enum corporateTreasury.Continent",
					"name": "continent",
					"type": "uint8"
				},
				{
					"internalType": "enum corporateTreasury.AssetClass",
					"name": "assetClass",
					"type": "uint8"
				}
			],
			"stateMutability": "view",
			"type": "function"
		},
		{
			"inputs": [],
			"name": "owner",
			"outputs": [
				{
					"internalType": "address",
					"name": "",
					"type": "address"
				}
			],
			"stateMutability": "view",
			"type": "function"
		},
		{
			"inputs": [],
			"name": "totalInvestmentsCount",
			"outputs": [
				{
					"internalType": "uint256",
					"name": "",
					"type": "uint256"
				}
			],
			"stateMutability": "view",
			"type": "function"
		}
	]
}